{
  "_format": "hh-sol-artifact-1",
  "contractName": "PharmaSupplyChain",
  "sourceName": "contracts/PharmaSupplyChain.sol",
  "abi": [
    {
      "inputs": [
        {
          "internalType": "address",
          "name": "_roles",
          "type": "address"
        },
        {
          "internalType": "address",
          "name": "_registry",
          "type": "address"
        }
      ],
      "stateMutability": "nonpayable",
      "type": "constructor"
    },
    {
      "inputs": [
        {
          "internalType": "string",
          "name": "_name",
          "type": "string"
        },
        {
          "internalType": "string",
          "name": "_batchNumber",
          "type": "string"
        },
        {
          "internalType": "uint256",
          "name": "_expiryDate",
          "type": "uint256"
        },
        {
          "internalType": "string",
          "name": "_ipfsHash",
          "type": "string"
        }
      ],
      "name": "registerProduct",
      "outputs": [
        {
          "internalType": "uint256",
          "name": "",
          "type": "uint256"
        }
      ],
      "stateMutability": "nonpayable",
      "type": "function"
    },
    {
      "inputs": [],
      "name": "registryContract",
      "outputs": [
        {
          "internalType": "contract ProductRegistry",
          "name": "",
          "type": "address"
        }
      ],
      "stateMutability": "view",
      "type": "function"
    },
    {
      "inputs": [],
      "name": "rolesContract",
      "outputs": [
        {
          "internalType": "contract PharmaRoles",
          "name": "",
          "type": "address"
        }
      ],
      "stateMutability": "view",
      "type": "function"
    },
    {
      "inputs": [
        {
          "internalType": "uint256",
          "name": "_productId",
          "type": "uint256"
        },
        {
          "internalType": "enum PharmaLibrary.ProductStatus",
          "name": "_newStatus",
          "type": "uint8"
        }
      ],
      "name": "scanProduct",
      "outputs": [],
      "stateMutability": "nonpayable",
      "type": "function"
    },
    {
      "inputs": [
        {
          "internalType": "uint256",
          "name": "_productId",
          "type": "uint256"
        },
        {
          "internalType": "address",
          "name": "_newOwner",
          "type": "address"
        }
      ],
      "name": "transferOwnership",
      "outputs": [],
      "stateMutability": "nonpayable",
      "type": "function"
    }
  ],
  "bytecode": "0x60806040523480156200001157600080fd5b506040516200126d3803806200126d83398181016040528101906200003791906200012a565b816000806101000a81548173ffffffffffffffffffffffffffffffffffffffff021916908373ffffffffffffffffffffffffffffffffffffffff16021790555080600160006101000a81548173ffffffffffffffffffffffffffffffffffffffff021916908373ffffffffffffffffffffffffffffffffffffffff160217905550505062000171565b600080fd5b600073ffffffffffffffffffffffffffffffffffffffff82169050919050565b6000620000f282620000c5565b9050919050565b6200010481620000e5565b81146200011057600080fd5b50565b6000815190506200012481620000f9565b92915050565b60008060408385031215620001445762000143620000c0565b5b6000620001548582860162000113565b9250506020620001678582860162000113565b9150509250929050565b6110ec80620001816000396000f3fe608060405234801561001057600080fd5b50600436106100575760003560e01c806328c1f99b1461005c57806329507f731461007a57806393544e0c14610096578063bf16a7bd146100c6578063ca53b391146100e2575b600080fd5b610064610100565b604051610071919061076a565b60405180910390f35b610094600480360381019061008f919061080d565b610126565b005b6100b060048036038101906100ab9190610993565b6102c8565b6040516100bd9190610a5d565b60405180910390f35b6100e060048036038101906100db9190610a9d565b610525565b005b6100ea6106c7565b6040516100f79190610afe565b60405180910390f35b600160009054906101000a900473ffffffffffffffffffffffffffffffffffffffff1681565b6000600160009054906101000a900473ffffffffffffffffffffffffffffffffffffffff1673ffffffffffffffffffffffffffffffffffffffff1663fe542c9b846040518263ffffffff1660e01b81526004016101839190610a5d565b602060405180830381865afa1580156101a0573d6000803e3d6000fd5b505050506040513d601f19601f820116820180604052508101906101c49190610b2e565b90508073ffffffffffffffffffffffffffffffffffffffff163373ffffffffffffffffffffffffffffffffffffffff1614610234576040517f08c379a000000000000000000000000000000000000000000000000000000000815260040161022b90610bb8565b60405180910390fd5b600160009054906101000a900473ffffffffffffffffffffffffffffffffffffffff1673ffffffffffffffffffffffffffffffffffffffff16637192711f84846040518363ffffffff1660e01b8152600401610291929190610be7565b600060405180830381600087803b1580156102ab57600080fd5b505af11580156102bf573d6000803e3d6000fd5b50505050505050565b60008060009054906101000a900473ffffffffffffffffffffffffffffffffffffffff1673ffffffffffffffffffffffffffffffffffffffff166317d4a491336040518263ffffffff1660e01b81526004016103249190610c10565b602060405180830381865afa158015610341573d6000803e3d6000fd5b505050506040513d601f19601f820116820180604052508101906103659190610c63565b6103a4576040517f08c379a000000000000000000000000000000000000000000000000000000000815260040161039b90610cdc565b60405180910390fd5b4283116103e6576040517f08c379a00000000000000000000000000000000000000000000000000000000081526004016103dd90610d48565b60405180910390fd5b6000604051806101600160405280600081526020018781526020018681526020014281526020018581526020013373ffffffffffffffffffffffffffffffffffffffff1681526020013373ffffffffffffffffffffffffffffffffffffffff1681526020016000600581111561045f5761045e610d68565b5b8152602001848152602001600115158152602001600015158152509050600160009054906101000a900473ffffffffffffffffffffffffffffffffffffffff1673ffffffffffffffffffffffffffffffffffffffff16637418e7a7826040518263ffffffff1660e01b81526004016104d79190610f88565b6020604051808303816000875af11580156104f6573d6000803e3d6000fd5b505050506040513d601f19601f8201168201806040525081019061051a9190610fbf565b915050949350505050565b6000600160009054906101000a900473ffffffffffffffffffffffffffffffffffffffff1673ffffffffffffffffffffffffffffffffffffffff1663fe542c9b846040518263ffffffff1660e01b81526004016105829190610a5d565b602060405180830381865afa15801561059f573d6000803e3d6000fd5b505050506040513d601f19601f820116820180604052508101906105c39190610b2e565b90508073ffffffffffffffffffffffffffffffffffffffff163373ffffffffffffffffffffffffffffffffffffffff1614610633576040517f08c379a000000000000000000000000000000000000000000000000000000000815260040161062a9061105e565b60405180910390fd5b600160009054906101000a900473ffffffffffffffffffffffffffffffffffffffff1673ffffffffffffffffffffffffffffffffffffffff16633a1b3d3184846040518363ffffffff1660e01b815260040161069092919061108d565b600060405180830381600087803b1580156106aa57600080fd5b505af11580156106be573d6000803e3d6000fd5b50505050505050565b60008054906101000a900473ffffffffffffffffffffffffffffffffffffffff1681565b600073ffffffffffffffffffffffffffffffffffffffff82169050919050565b6000819050919050565b600061073061072b610726846106eb565b61070b565b6106eb565b9050919050565b600061074282610715565b9050919050565b600061075482610737565b9050919050565b61076481610749565b82525050565b600060208201905061077f600083018461075b565b92915050565b6000604051905090565b600080fd5b600080fd5b6000819050919050565b6107ac81610799565b81146107b757600080fd5b50565b6000813590506107c9816107a3565b92915050565b60006107da826106eb565b9050919050565b6107ea816107cf565b81146107f557600080fd5b50565b600081359050610807816107e1565b92915050565b600080604083850312156108245761082361078f565b5b6000610832858286016107ba565b9250506020610843858286016107f8565b9150509250929050565b600080fd5b600080fd5b6000601f19601f8301169050919050565b7f4e487b7100000000000000000000000000000000000000000000000000000000600052604160045260246000fd5b6108a082610857565b810181811067ffffffffffffffff821117156108bf576108be610868565b5b80604052505050565b60006108d2610785565b90506108de8282610897565b919050565b600067ffffffffffffffff8211156108fe576108fd610868565b5b61090782610857565b9050602081019050919050565b82818337600083830152505050565b6000610936610931846108e3565b6108c8565b90508281526020810184848401111561095257610951610852565b5b61095d848285610914565b509392505050565b600082601f83011261097a5761097961084d565b5b813561098a848260208601610923565b91505092915050565b600080600080608085870312156109ad576109ac61078f565b5b600085013567ffffffffffffffff8111156109cb576109ca610794565b5b6109d787828801610965565b945050602085013567ffffffffffffffff8111156109f8576109f7610794565b5b610a0487828801610965565b9350506040610a15878288016107ba565b925050606085013567ffffffffffffffff811115610a3657610a35610794565b5b610a4287828801610965565b91505092959194509250565b610a5781610799565b82525050565b6000602082019050610a726000830184610a4e565b92915050565b60068110610a8557600080fd5b50565b600081359050610a9781610a78565b92915050565b60008060408385031215610ab457610ab361078f565b5b6000610ac2858286016107ba565b9250506020610ad385828601610a88565b9150509250929050565b6000610ae882610737565b9050919050565b610af881610add565b82525050565b6000602082019050610b136000830184610aef565b92915050565b600081519050610b28816107e1565b92915050565b600060208284031215610b4457610b4361078f565b5b6000610b5284828501610b19565b91505092915050565b600082825260208201905092915050565b7f4e6f7420746865206f776e657200000000000000000000000000000000000000600082015250565b6000610ba2600d83610b5b565b9150610bad82610b6c565b602082019050919050565b60006020820190508181036000830152610bd181610b95565b9050919050565b610be1816107cf565b82525050565b6000604082019050610bfc6000830185610a4e565b610c096020830184610bd8565b9392505050565b6000602082019050610c256000830184610bd8565b92915050565b60008115159050919050565b610c4081610c2b565b8114610c4b57600080fd5b50565b600081519050610c5d81610c37565b92915050565b600060208284031215610c7957610c7861078f565b5b6000610c8784828501610c4e565b91505092915050565b7f4e6f742061206d616e7566616374757265720000000000000000000000000000600082015250565b6000610cc6601283610b5b565b9150610cd182610c90565b602082019050919050565b60006020820190508181036000830152610cf581610cb9565b9050919050565b7f4578706972656420446174650000000000000000000000000000000000000000600082015250565b6000610d32600c83610b5b565b9150610d3d82610cfc565b602082019050919050565b60006020820190508181036000830152610d6181610d25565b9050919050565b7f4e487b7100000000000000000000000000000000000000000000000000000000600052602160045260246000fd5b610da081610799565b82525050565b600081519050919050565b600082825260208201905092915050565b60005b83811015610de0578082015181840152602081019050610dc5565b60008484015250505050565b6000610df782610da6565b610e018185610db1565b9350610e11818560208601610dc2565b610e1a81610857565b840191505092915050565b610e2e816107cf565b82525050565b60068110610e4557610e44610d68565b5b50565b6000819050610e5682610e34565b919050565b6000610e6682610e48565b9050919050565b610e7681610e5b565b82525050565b610e8581610c2b565b82525050565b600061016083016000830151610ea46000860182610d97565b5060208301518482036020860152610ebc8282610dec565b91505060408301518482036040860152610ed68282610dec565b9150506060830151610eeb6060860182610d97565b506080830151610efe6080860182610d97565b5060a0830151610f1160a0860182610e25565b5060c0830151610f2460c0860182610e25565b5060e0830151610f3760e0860182610e6d565b50610100830151848203610100860152610f518282610dec565b915050610120830151610f68610120860182610e7c565b50610140830151610f7d610140860182610e7c565b508091505092915050565b60006020820190508181036000830152610fa28184610e8b565b905092915050565b600081519050610fb9816107a3565b92915050565b600060208284031215610fd557610fd461078f565b5b6000610fe384828501610faa565b91505092915050565b7f4f6e6c7920746865206f776e65722063616e207363616e2f757064617465207360008201527f7461747573000000000000000000000000000000000000000000000000000000602082015250565b6000611048602583610b5b565b915061105382610fec565b604082019050919050565b600060208201905081810360008301526110778161103b565b9050919050565b61108781610e5b565b82525050565b60006040820190506110a26000830185610a4e565b6110af602083018461107e565b939250505056fea2646970667358221220cf3af7c143112c4cf62e9637418957486d903b74c51badba484b33f1a1bb0d9764736f6c63430008140033",
  "linkReferences": {},
  "deployedLinkReferences": {}
}