{
  "_format": "hh-sol-artifact-1",
  "contractName": "ProductRegistry",
  "sourceName": "contracts/ProductRegistry.sol",
  "abi": [
    {
      "inputs": [],
      "stateMutability": "nonpayable",
      "type": "constructor"
    },
    {
      "inputs": [],
      "name": "AccessControlBadConfirmation",
      "type": "error"
    },
    {
      "inputs": [
        {
          "internalType": "address",
          "name": "account",
          "type": "address"
        },
        {
          "internalType": "bytes32",
          "name": "neededRole",
          "type": "bytes32"
        }
      ],
      "name": "AccessControlUnauthorizedAccount",
      "type": "error"
    },
    {
      "anonymous": false,
      "inputs": [
        {
          "indexed": true,
          "internalType": "uint256",
          "name": "productId",
          "type": "uint256"
        },
        {
          "indexed": false,
          "internalType": "string",
          "name": "batchNumber",
          "type": "string"
        }
      ],
      "name": "ProductAdded",
      "type": "event"
    },
    {
      "anonymous": false,
      "inputs": [
        {
          "indexed": true,
          "internalType": "uint256",
          "name": "productId",
          "type": "uint256"
        },
        {
          "indexed": false,
          "internalType": "string",
          "name": "updateType",
          "type": "string"
        }
      ],
      "name": "ProductUpdated",
      "type": "event"
    },
    {
      "anonymous": false,
      "inputs": [
        {
          "indexed": true,
          "internalType": "bytes32",
          "name": "role",
          "type": "bytes32"
        },
        {
          "indexed": true,
          "internalType": "bytes32",
          "name": "previousAdminRole",
          "type": "bytes32"
        },
        {
          "indexed": true,
          "internalType": "bytes32",
          "name": "newAdminRole",
          "type": "bytes32"
        }
      ],
      "name": "RoleAdminChanged",
      "type": "event"
    },
    {
      "anonymous": false,
      "inputs": [
        {
          "indexed": true,
          "internalType": "bytes32",
          "name": "role",
          "type": "bytes32"
        },
        {
          "indexed": true,
          "internalType": "address",
          "name": "account",
          "type": "address"
        },
        {
          "indexed": true,
          "internalType": "address",
          "name": "sender",
          "type": "address"
        }
      ],
      "name": "RoleGranted",
      "type": "event"
    },
    {
      "anonymous": false,
      "inputs": [
        {
          "indexed": true,
          "internalType": "bytes32",
          "name": "role",
          "type": "bytes32"
        },
        {
          "indexed": true,
          "internalType": "address",
          "name": "account",
          "type": "address"
        },
        {
          "indexed": true,
          "internalType": "address",
          "name": "sender",
          "type": "address"
        }
      ],
      "name": "RoleRevoked",
      "type": "event"
    },
    {
      "inputs": [],
      "name": "CONTROLLER_ROLE",
      "outputs": [
        {
          "internalType": "bytes32",
          "name": "",
          "type": "bytes32"
        }
      ],
      "stateMutability": "view",
      "type": "function"
    },
    {
      "inputs": [],
      "name": "DEFAULT_ADMIN_ROLE",
      "outputs": [
        {
          "internalType": "bytes32",
          "name": "",
          "type": "bytes32"
        }
      ],
      "stateMutability": "view",
      "type": "function"
    },
    {
      "inputs": [
        {
          "components": [
            {
              "internalType": "uint256",
              "name": "productId",
              "type": "uint256"
            },
            {
              "internalType": "string",
              "name": "name",
              "type": "string"
            },
            {
              "internalType": "string",
              "name": "batchNumber",
              "type": "string"
            },
            {
              "internalType": "uint256",
              "name": "manufacturingDate",
              "type": "uint256"
            },
            {
              "internalType": "uint256",
              "name": "expiryDate",
              "type": "uint256"
            },
            {
              "internalType": "address",
              "name": "manufacturer",
              "type": "address"
            },
            {
              "internalType": "address",
              "name": "currentOwner",
              "type": "address"
            },
            {
              "internalType": "enum PharmaLibrary.ProductStatus",
              "name": "status",
              "type": "uint8"
            },
            {
              "internalType": "string",
              "name": "ipfsHash",
              "type": "string"
            },
            {
              "internalType": "bool",
              "name": "isValid",
              "type": "bool"
            },
            {
              "internalType": "bool",
              "name": "isVerified",
              "type": "bool"
            }
          ],
          "internalType": "struct PharmaLibrary.Product",
          "name": "product",
          "type": "tuple"
        }
      ],
      "name": "addProduct",
      "outputs": [
        {
          "internalType": "uint256",
          "name": "",
          "type": "uint256"
        }
      ],
      "stateMutability": "nonpayable",
      "type": "function"
    },
    {
      "inputs": [
        {
          "internalType": "string",
          "name": "",
          "type": "string"
        }
      ],
      "name": "batchNumberExists",
      "outputs": [
        {
          "internalType": "bool",
          "name": "",
          "type": "bool"
        }
      ],
      "stateMutability": "view",
      "type": "function"
    },
    {
      "inputs": [
        {
          "internalType": "uint256",
          "name": "_productId",
          "type": "uint256"
        }
      ],
      "name": "getProduct",
      "outputs": [
        {
          "components": [
            {
              "internalType": "uint256",
              "name": "productId",
              "type": "uint256"
            },
            {
              "internalType": "string",
              "name": "name",
              "type": "string"
            },
            {
              "internalType": "string",
              "name": "batchNumber",
              "type": "string"
            },
            {
              "internalType": "uint256",
              "name": "manufacturingDate",
              "type": "uint256"
            },
            {
              "internalType": "uint256",
              "name": "expiryDate",
              "type": "uint256"
            },
            {
              "internalType": "address",
              "name": "manufacturer",
              "type": "address"
            },
            {
              "internalType": "address",
              "name": "currentOwner",
              "type": "address"
            },
            {
              "internalType": "enum PharmaLibrary.ProductStatus",
              "name": "status",
              "type": "uint8"
            },
            {
              "internalType": "string",
              "name": "ipfsHash",
              "type": "string"
            },
            {
              "internalType": "bool",
              "name": "isValid",
              "type": "bool"
            },
            {
              "internalType": "bool",
              "name": "isVerified",
              "type": "bool"
            }
          ],
          "internalType": "struct PharmaLibrary.Product",
          "name": "",
          "type": "tuple"
        }
      ],
      "stateMutability": "view",
      "type": "function"
    },
    {
      "inputs": [
        {
          "internalType": "uint256",
          "name": "_productId",
          "type": "uint256"
        }
      ],
      "name": "getProductOwner",
      "outputs": [
        {
          "internalType": "address",
          "name": "",
          "type": "address"
        }
      ],
      "stateMutability": "view",
      "type": "function"
    },
    {
      "inputs": [
        {
          "internalType": "bytes32",
          "name": "role",
          "type": "bytes32"
        }
      ],
      "name": "getRoleAdmin",
      "outputs": [
        {
          "internalType": "bytes32",
          "name": "",
          "type": "bytes32"
        }
      ],
      "stateMutability": "view",
      "type": "function"
    },
    {
      "inputs": [
        {
          "internalType": "bytes32",
          "name": "role",
          "type": "bytes32"
        },
        {
          "internalType": "address",
          "name": "account",
          "type": "address"
        }
      ],
      "name": "grantRole",
      "outputs": [],
      "stateMutability": "nonpayable",
      "type": "function"
    },
    {
      "inputs": [
        {
          "internalType": "bytes32",
          "name": "role",
          "type": "bytes32"
        },
        {
          "internalType": "address",
          "name": "account",
          "type": "address"
        }
      ],
      "name": "hasRole",
      "outputs": [
        {
          "internalType": "bool",
          "name": "",
          "type": "bool"
        }
      ],
      "stateMutability": "view",
      "type": "function"
    },
    {
      "inputs": [
        {
          "internalType": "bytes32",
          "name": "role",
          "type": "bytes32"
        },
        {
          "internalType": "address",
          "name": "callerConfirmation",
          "type": "address"
        }
      ],
      "name": "renounceRole",
      "outputs": [],
      "stateMutability": "nonpayable",
      "type": "function"
    },
    {
      "inputs": [
        {
          "internalType": "bytes32",
          "name": "role",
          "type": "bytes32"
        },
        {
          "internalType": "address",
          "name": "account",
          "type": "address"
        }
      ],
      "name": "revokeRole",
      "outputs": [],
      "stateMutability": "nonpayable",
      "type": "function"
    },
    {
      "inputs": [
        {
          "internalType": "uint256",
          "name": "_productId",
          "type": "uint256"
        },
        {
          "internalType": "bool",
          "name": "_status",
          "type": "bool"
        }
      ],
      "name": "setVerified",
      "outputs": [],
      "stateMutability": "nonpayable",
      "type": "function"
    },
    {
      "inputs": [
        {
          "internalType": "bytes4",
          "name": "interfaceId",
          "type": "bytes4"
        }
      ],
      "name": "supportsInterface",
      "outputs": [
        {
          "internalType": "bool",
          "name": "",
          "type": "bool"
        }
      ],
      "stateMutability": "view",
      "type": "function"
    },
    {
      "inputs": [
        {
          "internalType": "uint256",
          "name": "_productId",
          "type": "uint256"
        },
        {
          "internalType": "address",
          "name": "_newOwner",
          "type": "address"
        }
      ],
      "name": "updateOwner",
      "outputs": [],
      "stateMutability": "nonpayable",
      "type": "function"
    },
    {
      "inputs": [
        {
          "internalType": "uint256",
          "name": "_productId",
          "type": "uint256"
        },
        {
          "internalType": "enum PharmaLibrary.ProductStatus",
          "name": "_status",
          "type": "uint8"
        }
      ],
      "name": "updateStatus",
      "outputs": [],
      "stateMutability": "nonpayable",
      "type": "function"
    }
  ],
  "bytecode": "0x60806040523480156200001157600080fd5b50620000276000801b336200002e60201b60201c565b50620001a3565b60006200004283836200013160201b60201c565b6200012657600160008085815260200190815260200160002060000160008473ffffffffffffffffffffffffffffffffffffffff1673ffffffffffffffffffffffffffffffffffffffff16815260200190815260200160002060006101000a81548160ff021916908315150217905550620000c26200019b60201b60201c565b73ffffffffffffffffffffffffffffffffffffffff168273ffffffffffffffffffffffffffffffffffffffff16847f2f8788117e7eff1d82e926ec794901d17c78024a50270940304540a733656f0d60405160405180910390a4600190506200012b565b600090505b92915050565b600080600084815260200190815260200160002060000160008373ffffffffffffffffffffffffffffffffffffffff1673ffffffffffffffffffffffffffffffffffffffff16815260200190815260200160002060009054906101000a900460ff16905092915050565b600033905090565b6121be80620001b36000396000f3fe608060405234801561001057600080fd5b50600436106100f55760003560e01c80637192711f11610097578063a217fddf11610066578063a217fddf14610294578063b9db15b4146102b2578063d547741f146102e2578063fe542c9b146102fe576100f5565b80637192711f146101e85780637418e7a7146102045780638f5cf4671461023457806391d1485414610264576100f5565b80632f2ff15d116100d35780632f2ff15d1461017857806334756d951461019457806336568abe146101b05780633a1b3d31146101cc576100f5565b806301ffc9a7146100fa578063092c5b3b1461012a578063248a9ca314610148575b600080fd5b610114600480360381019061010f9190611255565b61032e565b604051610121919061129d565b60405180910390f35b6101326103a8565b60405161013f91906112d1565b60405180910390f35b610162600480360381019061015d9190611318565b6103cc565b60405161016f91906112d1565b60405180910390f35b610192600480360381019061018d91906113a3565b6103eb565b005b6101ae60048036038101906101a99190611445565b61040d565b005b6101ca60048036038101906101c591906113a3565b610503565b005b6101e660048036038101906101e191906114aa565b61057e565b005b61020260048036038101906101fd91906114ea565b610684565b005b61021e600480360381019061021991906117da565b6107a1565b60405161022b9190611832565b60405180910390f35b61024e6004803603810190610249919061184d565b610a6b565b60405161025b919061129d565b60405180910390f35b61027e600480360381019061027991906113a3565b610aa1565b60405161028b919061129d565b60405180910390f35b61029c610b0b565b6040516102a991906112d1565b60405180910390f35b6102cc60048036038101906102c79190611896565b610b12565b6040516102d99190611ae3565b60405180910390f35b6102fc60048036038101906102f791906113a3565b610e31565b005b61031860048036038101906103139190611896565b610e53565b6040516103259190611b14565b60405180910390f35b60007f7965db0b000000000000000000000000000000000000000000000000000000007bffffffffffffffffffffffffffffffffffffffffffffffffffffffff1916827bffffffffffffffffffffffffffffffffffffffffffffffffffffffff191614806103a157506103a082610e93565b5b9050919050565b7f7b765e0e932d348852a6f810bfa1ab891e259123f02db8cdcde614c57022335781565b6000806000838152602001908152602001600020600101549050919050565b6103f4826103cc565b6103fd81610efd565b6104078383610f11565b50505050565b7f7b765e0e932d348852a6f810bfa1ab891e259123f02db8cdcde614c57022335761043781610efd565b6001600084815260200190815260200160002060080160009054906101000a900460ff1661049a576040517f08c379a000000000000000000000000000000000000000000000000000000000815260040161049190611b8c565b60405180910390fd5b816001600085815260200190815260200160002060080160016101000a81548160ff021916908315150217905550827fdad7092ee1ca215307c34b5dd865bb1f9be7e1f0110d230eaefd78fa4742903e6040516104f690611bf8565b60405180910390a2505050565b61050b611002565b73ffffffffffffffffffffffffffffffffffffffff168173ffffffffffffffffffffffffffffffffffffffff161461056f576040517f6697b23200000000000000000000000000000000000000000000000000000000815260040160405180910390fd5b610579828261100a565b505050565b7f7b765e0e932d348852a6f810bfa1ab891e259123f02db8cdcde614c5702233576105a881610efd565b6001600084815260200190815260200160002060080160009054906101000a900460ff1661060b576040517f08c379a000000000000000000000000000000000000000000000000000000000815260040161060290611b8c565b60405180910390fd5b816001600085815260200190815260200160002060060160146101000a81548160ff0219169083600581111561064457610643611960565b5b0217905550827fdad7092ee1ca215307c34b5dd865bb1f9be7e1f0110d230eaefd78fa4742903e60405161067790611c64565b60405180910390a2505050565b7f7b765e0e932d348852a6f810bfa1ab891e259123f02db8cdcde614c5702233576106ae81610efd565b6001600084815260200190815260200160002060080160009054906101000a900460ff16610711576040517f08c379a000000000000000000000000000000000000000000000000000000000815260040161070890611b8c565b60405180910390fd5b816001600085815260200190815260200160002060060160006101000a81548173ffffffffffffffffffffffffffffffffffffffff021916908373ffffffffffffffffffffffffffffffffffffffff160217905550827fdad7092ee1ca215307c34b5dd865bb1f9be7e1f0110d230eaefd78fa4742903e60405161079490611cd0565b60405180910390a2505050565b60007f7b765e0e932d348852a6f810bfa1ab891e259123f02db8cdcde614c5702233576107cd81610efd565b600283604001516040516107e19190611d2c565b908152602001604051809103902060009054906101000a900460ff161561083d576040517f08c379a000000000000000000000000000000000000000000000000000000000815260040161083490611d8f565b60405180910390fd5b600060036000815461084e90611dde565b91905081905590508084600001818152505060018461012001901515908115158152505083600160008381526020019081526020016000206000820151816000015560208201518160010190816108a59190612032565b5060408201518160020190816108bb9190612032565b50606082015181600301556080820151816004015560a08201518160050160006101000a81548173ffffffffffffffffffffffffffffffffffffffff021916908373ffffffffffffffffffffffffffffffffffffffff16021790555060c08201518160060160006101000a81548173ffffffffffffffffffffffffffffffffffffffff021916908373ffffffffffffffffffffffffffffffffffffffff16021790555060e08201518160060160146101000a81548160ff0219169083600581111561098957610988611960565b5b02179055506101008201518160070190816109a49190612032565b506101208201518160080160006101000a81548160ff0219169083151502179055506101408201518160080160016101000a81548160ff021916908315150217905550905050600160028560400151604051610a009190611d2c565b908152602001604051809103902060006101000a81548160ff021916908315150217905550807f259101de1f87b04b9ee0332ce5e3cc508014004bf283424aead6cd8692f5cf988560400151604051610a59919061213d565b60405180910390a28092505050919050565b6002818051602081018201805184825260208301602085012081835280955050505050506000915054906101000a900460ff1681565b600080600084815260200190815260200160002060000160008373ffffffffffffffffffffffffffffffffffffffff1673ffffffffffffffffffffffffffffffffffffffff16815260200190815260200160002060009054906101000a900460ff16905092915050565b6000801b81565b610b1a61114d565b600160008381526020019081526020016000206040518061016001604052908160008201548152602001600182018054610b5390611e55565b80601f0160208091040260200160405190810160405280929190818152602001828054610b7f90611e55565b8015610bcc5780601f10610ba157610100808354040283529160200191610bcc565b820191906000526020600020905b815481529060010190602001808311610baf57829003601f168201915b50505050508152602001600282018054610be590611e55565b80601f0160208091040260200160405190810160405280929190818152602001828054610c1190611e55565b8015610c5e5780601f10610c3357610100808354040283529160200191610c5e565b820191906000526020600020905b815481529060010190602001808311610c4157829003601f168201915b5050505050815260200160038201548152602001600482015481526020016005820160009054906101000a900473ffffffffffffffffffffffffffffffffffffffff1673ffffffffffffffffffffffffffffffffffffffff1673ffffffffffffffffffffffffffffffffffffffff1681526020016006820160009054906101000a900473ffffffffffffffffffffffffffffffffffffffff1673ffffffffffffffffffffffffffffffffffffffff1673ffffffffffffffffffffffffffffffffffffffff1681526020016006820160149054906101000a900460ff166005811115610d4c57610d4b611960565b5b6005811115610d5e57610d5d611960565b5b8152602001600782018054610d7290611e55565b80601f0160208091040260200160405190810160405280929190818152602001828054610d9e90611e55565b8015610deb5780601f10610dc057610100808354040283529160200191610deb565b820191906000526020600020905b815481529060010190602001808311610dce57829003601f168201915b505050505081526020016008820160009054906101000a900460ff161515151581526020016008820160019054906101000a900460ff1615151515815250509050919050565b610e3a826103cc565b610e4381610efd565b610e4d838361100a565b50505050565b60006001600083815260200190815260200160002060060160009054906101000a900473ffffffffffffffffffffffffffffffffffffffff169050919050565b60007f01ffc9a7000000000000000000000000000000000000000000000000000000007bffffffffffffffffffffffffffffffffffffffffffffffffffffffff1916827bffffffffffffffffffffffffffffffffffffffffffffffffffffffff1916149050919050565b610f0e81610f09611002565b6110fc565b50565b6000610f1d8383610aa1565b610ff757600160008085815260200190815260200160002060000160008473ffffffffffffffffffffffffffffffffffffffff1673ffffffffffffffffffffffffffffffffffffffff16815260200190815260200160002060006101000a81548160ff021916908315150217905550610f94611002565b73ffffffffffffffffffffffffffffffffffffffff168273ffffffffffffffffffffffffffffffffffffffff16847f2f8788117e7eff1d82e926ec794901d17c78024a50270940304540a733656f0d60405160405180910390a460019050610ffc565b600090505b92915050565b600033905090565b60006110168383610aa1565b156110f157600080600085815260200190815260200160002060000160008473ffffffffffffffffffffffffffffffffffffffff1673ffffffffffffffffffffffffffffffffffffffff16815260200190815260200160002060006101000a81548160ff02191690831515021790555061108e611002565b73ffffffffffffffffffffffffffffffffffffffff168273ffffffffffffffffffffffffffffffffffffffff16847ff6391f5c32d9c69d2a47ea670b442974b53935d1edc7fd64eb21e047a839171b60405160405180910390a4600190506110f6565b600090505b92915050565b6111068282610aa1565b6111495780826040517fe2517d3f00000000000000000000000000000000000000000000000000000000815260040161114092919061215f565b60405180910390fd5b5050565b6040518061016001604052806000815260200160608152602001606081526020016000815260200160008152602001600073ffffffffffffffffffffffffffffffffffffffff168152602001600073ffffffffffffffffffffffffffffffffffffffff168152602001600060058111156111ca576111c9611960565b5b8152602001606081526020016000151581526020016000151581525090565b6000604051905090565b600080fd5b600080fd5b60007fffffffff0000000000000000000000000000000000000000000000000000000082169050919050565b611232816111fd565b811461123d57600080fd5b50565b60008135905061124f81611229565b92915050565b60006020828403121561126b5761126a6111f3565b5b600061127984828501611240565b91505092915050565b60008115159050919050565b61129781611282565b82525050565b60006020820190506112b2600083018461128e565b92915050565b6000819050919050565b6112cb816112b8565b82525050565b60006020820190506112e660008301846112c2565b92915050565b6112f5816112b8565b811461130057600080fd5b50565b600081359050611312816112ec565b92915050565b60006020828403121561132e5761132d6111f3565b5b600061133c84828501611303565b91505092915050565b600073ffffffffffffffffffffffffffffffffffffffff82169050919050565b600061137082611345565b9050919050565b61138081611365565b811461138b57600080fd5b50565b60008135905061139d81611377565b92915050565b600080604083850312156113ba576113b96111f3565b5b60006113c885828601611303565b92505060206113d98582860161138e565b9150509250929050565b6000819050919050565b6113f6816113e3565b811461140157600080fd5b50565b600081359050611413816113ed565b92915050565b61142281611282565b811461142d57600080fd5b50565b60008135905061143f81611419565b92915050565b6000806040838503121561145c5761145b6111f3565b5b600061146a85828601611404565b925050602061147b85828601611430565b9150509250929050565b6006811061149257600080fd5b50565b6000813590506114a481611485565b92915050565b600080604083850312156114c1576114c06111f3565b5b60006114cf85828601611404565b92505060206114e085828601611495565b9150509250929050565b60008060408385031215611501576115006111f3565b5b600061150f85828601611404565b92505060206115208582860161138e565b9150509250929050565b600080fd5b6000601f19601f8301169050919050565b7f4e487b7100000000000000000000000000000000000000000000000000000000600052604160045260246000fd5b6115788261152f565b810181811067ffffffffffffffff8211171561159757611596611540565b5b80604052505050565b60006115aa6111e9565b90506115b6828261156f565b919050565b600080fd5b600080fd5b600080fd5b600067ffffffffffffffff8211156115e5576115e4611540565b5b6115ee8261152f565b9050602081019050919050565b82818337600083830152505050565b600061161d611618846115ca565b6115a0565b905082815260208101848484011115611639576116386115c5565b5b6116448482856115fb565b509392505050565b600082601f830112611661576116606115c0565b5b813561167184826020860161160a565b91505092915050565b600061016082840312156116915761169061152a565b5b61169c6101606115a0565b905060006116ac84828501611404565b600083015250602082013567ffffffffffffffff8111156116d0576116cf6115bb565b5b6116dc8482850161164c565b602083015250604082013567ffffffffffffffff811115611700576116ff6115bb565b5b61170c8482850161164c565b604083015250606061172084828501611404565b606083015250608061173484828501611404565b60808301525060a06117488482850161138e565b60a08301525060c061175c8482850161138e565b60c08301525060e061177084828501611495565b60e08301525061010082013567ffffffffffffffff811115611795576117946115bb565b5b6117a18482850161164c565b610100830152506101206117b784828501611430565b610120830152506101406117cd84828501611430565b6101408301525092915050565b6000602082840312156117f0576117ef6111f3565b5b600082013567ffffffffffffffff81111561180e5761180d6111f8565b5b61181a8482850161167a565b91505092915050565b61182c816113e3565b82525050565b60006020820190506118476000830184611823565b92915050565b600060208284031215611863576118626111f3565b5b600082013567ffffffffffffffff811115611881576118806111f8565b5b61188d8482850161164c565b91505092915050565b6000602082840312156118ac576118ab6111f3565b5b60006118ba84828501611404565b91505092915050565b6118cc816113e3565b82525050565b600081519050919050565b600082825260208201905092915050565b60005b8381101561190c5780820151818401526020810190506118f1565b60008484015250505050565b6000611923826118d2565b61192d81856118dd565b935061193d8185602086016118ee565b6119468161152f565b840191505092915050565b61195a81611365565b82525050565b7f4e487b7100000000000000000000000000000000000000000000000000000000600052602160045260246000fd5b600681106119a05761199f611960565b5b50565b60008190506119b18261198f565b919050565b60006119c1826119a3565b9050919050565b6119d1816119b6565b82525050565b6119e081611282565b82525050565b6000610160830160008301516119ff60008601826118c3565b5060208301518482036020860152611a178282611918565b91505060408301518482036040860152611a318282611918565b9150506060830151611a4660608601826118c3565b506080830151611a5960808601826118c3565b5060a0830151611a6c60a0860182611951565b5060c0830151611a7f60c0860182611951565b5060e0830151611a9260e08601826119c8565b50610100830151848203610100860152611aac8282611918565b915050610120830151611ac36101208601826119d7565b50610140830151611ad86101408601826119d7565b508091505092915050565b60006020820190508181036000830152611afd81846119e6565b905092915050565b611b0e81611365565b82525050565b6000602082019050611b296000830184611b05565b92915050565b600082825260208201905092915050565b7f50726f6475637420696e76616c69640000000000000000000000000000000000600082015250565b6000611b76600f83611b2f565b9150611b8182611b40565b602082019050919050565b60006020820190508181036000830152611ba581611b69565b9050919050565b7f566572696669636174696f6e0000000000000000000000000000000000000000600082015250565b6000611be2600c83611b2f565b9150611bed82611bac565b602082019050919050565b60006020820190508181036000830152611c1181611bd5565b9050919050565b7f5374617475730000000000000000000000000000000000000000000000000000600082015250565b6000611c4e600683611b2f565b9150611c5982611c18565b602082019050919050565b60006020820190508181036000830152611c7d81611c41565b9050919050565b7f4f776e6572000000000000000000000000000000000000000000000000000000600082015250565b6000611cba600583611b2f565b9150611cc582611c84565b602082019050919050565b60006020820190508181036000830152611ce981611cad565b9050919050565b600081905092915050565b6000611d06826118d2565b611d108185611cf0565b9350611d208185602086016118ee565b80840191505092915050565b6000611d388284611cfb565b915081905092915050565b7f426174636820616c726561647920657869737473000000000000000000000000600082015250565b6000611d79601483611b2f565b9150611d8482611d43565b602082019050919050565b60006020820190508181036000830152611da881611d6c565b9050919050565b7f4e487b7100000000000000000000000000000000000000000000000000000000600052601160045260246000fd5b6000611de9826113e3565b91507fffffffffffffffffffffffffffffffffffffffffffffffffffffffffffffffff8203611e1b57611e1a611daf565b5b600182019050919050565b7f4e487b7100000000000000000000000000000000000000000000000000000000600052602260045260246000fd5b60006002820490506001821680611e6d57607f821691505b602082108103611e8057611e7f611e26565b5b50919050565b60008190508160005260206000209050919050565b60006020601f8301049050919050565b600082821b905092915050565b600060088302611ee87fffffffffffffffffffffffffffffffffffffffffffffffffffffffffffffffff82611eab565b611ef28683611eab565b95508019841693508086168417925050509392505050565b6000819050919050565b6000611f2f611f2a611f25846113e3565b611f0a565b6113e3565b9050919050565b6000819050919050565b611f4983611f14565b611f5d611f5582611f36565b848454611eb8565b825550505050565b600090565b611f72611f65565b611f7d818484611f40565b505050565b5b81811015611fa157611f96600082611f6a565b600181019050611f83565b5050565b601f821115611fe657611fb781611e86565b611fc084611e9b565b81016020851015611fcf578190505b611fe3611fdb85611e9b565b830182611f82565b50505b505050565b600082821c905092915050565b600061200960001984600802611feb565b1980831691505092915050565b60006120228383611ff8565b9150826002028217905092915050565b61203b826118d2565b67ffffffffffffffff81111561205457612053611540565b5b61205e8254611e55565b612069828285611fa5565b600060209050601f83116001811461209c576000841561208a578287015190505b6120948582612016565b8655506120fc565b601f1984166120aa86611e86565b60005b828110156120d2578489015182556001820191506020850194506020810190506120ad565b868310156120ef57848901516120eb601f891682611ff8565b8355505b6001600288020188555050505b505050505050565b600061210f826118d2565b6121198185611b2f565b93506121298185602086016118ee565b6121328161152f565b840191505092915050565b600060208201905081810360008301526121578184612104565b905092915050565b60006040820190506121746000830185611b05565b61218160208301846112c2565b939250505056fea26469706673582212200b71a26c4749c50391db60f923aa28cf6434a809b279dd0c05f403a10899d2f164736f6c63430008140033",
  "linkReferences": {},
  "deployedLinkReferences": {}
}