{
  "_format": "hh-sol-artifact-1",
  "contractName": "VerificationService",
  "sourceName": "contracts/VerificationService.sol",
  "abi": [
    {
      "inputs": [
        {
          "internalType": "address",
          "name": "_roles",
          "type": "address"
        },
        {
          "internalType": "address",
          "name": "_registry",
          "type": "address"
        }
      ],
      "stateMutability": "nonpayable",
      "type": "constructor"
    },
    {
      "inputs": [],
      "name": "registryContract",
      "outputs": [
        {
          "internalType": "contract ProductRegistry",
          "name": "",
          "type": "address"
        }
      ],
      "stateMutability": "view",
      "type": "function"
    },
    {
      "inputs": [],
      "name": "rolesContract",
      "outputs": [
        {
          "internalType": "contract PharmaRoles",
          "name": "",
          "type": "address"
        }
      ],
      "stateMutability": "view",
      "type": "function"
    },
    {
      "inputs": [
        {
          "internalType": "uint256",
          "name": "_productId",
          "type": "uint256"
        }
      ],
      "name": "verifyProduct",
      "outputs": [],
      "stateMutability": "nonpayable",
      "type": "function"
    }
  ],
  "bytecode": "0x608060405234801561001057600080fd5b50604051610b94380380610b948339818101604052810190610032919061011d565b816000806101000a81548173ffffffffffffffffffffffffffffffffffffffff021916908373ffffffffffffffffffffffffffffffffffffffff16021790555080600160006101000a81548173ffffffffffffffffffffffffffffffffffffffff021916908373ffffffffffffffffffffffffffffffffffffffff160217905550505061015d565b600080fd5b600073ffffffffffffffffffffffffffffffffffffffff82169050919050565b60006100ea826100bf565b9050919050565b6100fa816100df565b811461010557600080fd5b50565b600081519050610117816100f1565b92915050565b60008060408385031215610134576101336100ba565b5b600061014285828601610108565b925050602061015385828601610108565b9150509250929050565b610a288061016c6000396000f3fe608060405234801561001057600080fd5b50600436106100415760003560e01c806328c1f99b14610046578063524e846214610064578063ca53b39114610080575b600080fd5b61004e61009e565b60405161005b91906103be565b60405180910390f35b61007e60048036038101906100799190610423565b6100c4565b005b61008861031b565b6040516100959190610471565b60405180910390f35b600160009054906101000a900473ffffffffffffffffffffffffffffffffffffffff1681565b60008054906101000a900473ffffffffffffffffffffffffffffffffffffffff1673ffffffffffffffffffffffffffffffffffffffff166354fc9169336040518263ffffffff1660e01b815260040161011d91906104ad565b602060405180830381865afa15801561013a573d6000803e3d6000fd5b505050506040513d601f19601f8201168201806040525081019061015e9190610500565b61019d576040517f08c379a00000000000000000000000000000000000000000000000000000000081526004016101949061058a565b60405180910390fd5b6000600160009054906101000a900473ffffffffffffffffffffffffffffffffffffffff1673ffffffffffffffffffffffffffffffffffffffff1663b9db15b4836040518263ffffffff1660e01b81526004016101fa91906105b9565b600060405180830381865afa158015610217573d6000803e3d6000fd5b505050506040513d6000823e3d601f19601f820116820180604052508101906102409190610905565b9050806101200151610287576040517f08c379a000000000000000000000000000000000000000000000000000000000815260040161027e9061099a565b60405180910390fd5b600160009054906101000a900473ffffffffffffffffffffffffffffffffffffffff1673ffffffffffffffffffffffffffffffffffffffff166334756d958360016040518363ffffffff1660e01b81526004016102e59291906109c9565b600060405180830381600087803b1580156102ff57600080fd5b505af1158015610313573d6000803e3d6000fd5b505050505050565b60008054906101000a900473ffffffffffffffffffffffffffffffffffffffff1681565b600073ffffffffffffffffffffffffffffffffffffffff82169050919050565b6000819050919050565b600061038461037f61037a8461033f565b61035f565b61033f565b9050919050565b600061039682610369565b9050919050565b60006103a88261038b565b9050919050565b6103b88161039d565b82525050565b60006020820190506103d360008301846103af565b92915050565b6000604051905090565b600080fd5b600080fd5b6000819050919050565b610400816103ed565b811461040b57600080fd5b50565b60008135905061041d816103f7565b92915050565b600060208284031215610439576104386103e3565b5b60006104478482850161040e565b91505092915050565b600061045b8261038b565b9050919050565b61046b81610450565b82525050565b60006020820190506104866000830184610462565b92915050565b60006104978261033f565b9050919050565b6104a78161048c565b82525050565b60006020820190506104c2600083018461049e565b92915050565b60008115159050919050565b6104dd816104c8565b81146104e857600080fd5b50565b6000815190506104fa816104d4565b92915050565b600060208284031215610516576105156103e3565b5b6000610524848285016104eb565b91505092915050565b600082825260208201905092915050565b7f43616c6c6572206973206e6f74206120726567756c61746f7200000000000000600082015250565b600061057460198361052d565b915061057f8261053e565b602082019050919050565b600060208201905081810360008301526105a381610567565b9050919050565b6105b3816103ed565b82525050565b60006020820190506105ce60008301846105aa565b92915050565b600080fd5b6000601f19601f8301169050919050565b7f4e487b7100000000000000000000000000000000000000000000000000000000600052604160045260246000fd5b610622826105d9565b810181811067ffffffffffffffff82111715610641576106406105ea565b5b80604052505050565b60006106546103d9565b90506106608282610619565b919050565b600080fd5b600081519050610679816103f7565b92915050565b600080fd5b600080fd5b600067ffffffffffffffff8211156106a4576106a36105ea565b5b6106ad826105d9565b9050602081019050919050565b60005b838110156106d85780820151818401526020810190506106bd565b60008484015250505050565b60006106f76106f284610689565b61064a565b90508281526020810184848401111561071357610712610684565b5b61071e8482856106ba565b509392505050565b600082601f83011261073b5761073a61067f565b5b815161074b8482602086016106e4565b91505092915050565b61075d8161048c565b811461076857600080fd5b50565b60008151905061077a81610754565b92915050565b6006811061078d57600080fd5b50565b60008151905061079f81610780565b92915050565b600061016082840312156107bc576107bb6105d4565b5b6107c761016061064a565b905060006107d78482850161066a565b600083015250602082015167ffffffffffffffff8111156107fb576107fa610665565b5b61080784828501610726565b602083015250604082015167ffffffffffffffff81111561082b5761082a610665565b5b61083784828501610726565b604083015250606061084b8482850161066a565b606083015250608061085f8482850161066a565b60808301525060a06108738482850161076b565b60a08301525060c06108878482850161076b565b60c08301525060e061089b84828501610790565b60e08301525061010082015167ffffffffffffffff8111156108c0576108bf610665565b5b6108cc84828501610726565b610100830152506101206108e2848285016104eb565b610120830152506101406108f8848285016104eb565b6101408301525092915050565b60006020828403121561091b5761091a6103e3565b5b600082015167ffffffffffffffff811115610939576109386103e8565b5b610945848285016107a5565b91505092915050565b7f50726f6475637420646f6573206e6f7420657869737400000000000000000000600082015250565b600061098460168361052d565b915061098f8261094e565b602082019050919050565b600060208201905081810360008301526109b381610977565b9050919050565b6109c3816104c8565b82525050565b60006040820190506109de60008301856105aa565b6109eb60208301846109ba565b939250505056fea2646970667358221220003e187f8d3766e2f1adf6c2dfb53369f1f64e6b566a4b77da00a964714d07d564736f6c63430008140033",
  "linkReferences": {},
  "deployedLinkReferences": {}
}